:10000000B9C010C3D2C0D1C0D0C0CFC0CEC0CDC047
:10001000CCC02FCECAC0C9C0C8C0C7C0C6C0C5C02A
:10002000C4C0C3C0C2C099C518C7A2C509C6C0C54F
:10003000D7C5F2C510C65AC610C71BC67EC69BC61A
:10004000A7C603C7A9C6C0C6C6C6E5C6FEC683C541
:10005000717138716D7671785B71383971386D6D89
:100060007873777C503D50787C50547879543E3882
:100070005E043D54385E00360160014B0100000112
:100080000102023F065B4F666D7D077F6F777C390B
:100090005E79717C50546D78730700A900D300FD20
:1000A00000E100EF00C500B700B40003000000004D
:1000B0000001000E501C54C2000100F10101002C8F
:1000C000010778043DD0000100EF0101001E000788
:1000D00054043DDE000100EB01040078000700003D
:1000E00078EC000100E70101001E00073E385EFACF
:1000F000000100E5010F003C000773773E08010195
:1001000000F3010A00630007007354010A6403004E
:10011000380238043806013801320032043505351A
:100120000538030238043800380805320732023235
:100130000638073806320332043201020408102060
:1001400040802530337500D40B9003DC0BA40C11D8
:100150000C140C5203210AD209A509A609AC09B254
:1001600009560A080A1209EB0376032F0343033BDF
:100170000450070011241FBECFE5D4E0DEBFCDBF81
:1001800010E0A0E6B0E0EAEEFFE102C005900D92BB
:10019000A437B107D9F722E0A4E7B0E001C01D926F
:1001A000A330B207E1F74EDE1ECF0FCB0F931F93A4
:1001B00080916400909165008330910509F47AC0C4
:1001C00030F48130910511F1029791F117C185301A
:1001D000910509F4DFC008F49CC0069709F00EC130
:1001E0008EE090E0909398008093970083E590E0F4
:1001F0009093A5008093A40060EE7EE281E0ABDCEA
:1002000081E080939A0081E090E0F4C08091E50065
:10021000837F109283009091A6009093820040917A
:10022000E1015091E2016091E3017091E401CCC0E1
:100230008091E500982F9B7F98609093E500409116
:10024000E1015091E2016091E3017091E4010091BC
:100250007E0010917F002091800030918100401736
:10026000510762077307F0F0909183009F5F9093AE
:1002700083009091A600909382004C595F4F6F4F7E
:100280007F4F40937A0050937B0060937C00709383
:100290007D0023E030E03093650020936400837F8D
:1002A0008093E50080918300843008F4A7C086E045
:1002B00090E0A0C08091E500837F8093E5004091AD
:1002C000E1015091E2016091E3017091E40100913C
:1002D0007A0010917B0020917C0030917D004017C6
:1002E00051076207730708F489C040575E4F6F4F8C
:1002F0007F4F40937600509377006093780070931F
:10030000790024E030E0309365002093640084603D
:100310006EC08091E500982F977F94609093E500E0
:100320004091E1015091E2016091E3017091E4019B
:10033000009176001091770020917800309179003B
:100340004017510762077307A8F04C595F4F6F4F72
:100350007F4F40937A0050937B0060937C007093B2
:100360007D0025E030E03093650020936400837FBA
:100370008093E500809182009091A600891739F062
:1003800081E090E0909365008093640038C0809392
:10039000820034C08091E500837F8093E500409126
:1003A000E1015091E2016091E3017091E40100915B
:1003B0007A0010917B0020917C0030917D004017E5
:1003C000510762077307D0F048535F4F6F4F7F4F5D
:1003D00040937E0050937F00609380007093810073
:1003E00022E030E0309365002093640088608093C1
:1003F000E50004C0909365008093640080E01F9145
:100400000F9108958091890090918A008330910521
:1004100009F4E9C040F48130910509F46EC00297F7
:1004200009F490C0FDC08430910519F00597E1F101
:10043000F7C084E790E09093A8008093A700809194
:10044000E500837F80628093E5008091E1019091D7
:10045000E201A091E301B091E401009B0FC080573D
:100460009E4FAF4FBF4F8093850090938600A0931F
:100470008700B093880085E090E03AC04091850005
:1004800050918600609187007091880084179507CD
:10049000A607B70708F4C4C083E190E090939800E2
:1004A0008093970081E0089584E790E09093A800FE
:1004B0008093A7008091E500837F80628093E500B0
:1004C0008091850090918600A0918700B09188006E
:1004D0004091E1015091E2016091E3017091E401EA
:1004E000481759076A077B0708F49AC082E090E032
:1004F00090938A008093890093C08091E500837F68
:100500001092A6004091E1015091E2016091E30157
:100510007091E40140575E4F6F4F7F4F40938500CD
:100520005093860060938700709388001092840037
:1005300022E030E030938A00209389008460809329
:10054000E5006EC08091E1019091E201A091E3018C
:10055000B091E40100990FC088519C4FAF4FBF4F3D
:100560008093850090938600A0938700B0938800C5
:1005700084E090E0BDCF2091E500277D24602093AA
:10058000E500409185005091860060918700709150
:10059000880084179507A607B70730F023E030E0FE
:1005A00030938A00209389002091A6003091840026
:1005B000321761F080579E4FAF4FBF4F8093850039
:1005C00090938600A0938700B093880020938400C6
:1005D0008091CA01281720F181E090E090938A0071
:1005E000809389000895E2DD8823D1F082E090E0D5
:1005F00090938A00809389008091E1019091E201BB
:10060000A091E301B091E40180579E4FAF4FBF4FDF
:100610008093850090938600A0938700B093880014
:1006200080E008951F920F920FB60F9211240F9041
:100630000FBE0F901F9018958AE090E0909398005D
:100640008093970008959091CB01892309F0E9C820
:10065000EBC808950895089508950895089560E1F8
:1006600077E282E178DA80918B008F5F823118F433
:1006700080938B00089510928B00049A089508953A
:100680000895089508958091950090919600909313
:10069000980080939700089508951092A9001092F1
:1006A000F60008958091E5008F7D8093E50083E159
:1006B00090E0909398008093970080E590E090936D
:1006C000A5008093A4008DE090E090939600809325
:1006D00095008091FB019091FC0124E6289FB001D8
:1006E000299F700D112483E136CA0895089581E091
:1006F0008093DE0008958093CA0150939600409342
:1007000095003093C7012093C60182E090E090935A
:100710009800809397007093C9016093C801089571
:1007200080919700909198008C30910531F0843140
:10073000910551F0892BB1F507C081E05FDA109285
:1007400098001092970008956DD5019B43C081E0F9
:1007500090E0909365008093640090936100809393
:10076000600090938A00809389008091EF018093CC
:10077000CA0184E090E0909396008093950080E316
:1007800095E79093C7018093C60182E090E0909333
:1007900098008093970083E090E09093C901809344
:1007A000C8010895BB988CE090E0909398008093E6
:1007B000970080E123DA8091FB019091FC0124E60F
:1007C000289FB001299F700D112481E0C4D981E0D8
:1007D00080939A00089508950895CF93DF93C7EF0B
:1007E000D1E0AE81BF819C0196DB20E030E04AE0A1
:1007F00050E075DB88859985820F931FDF91CF913B
:100800000895CF93DF93C7EFD1E0AE81BF819C0104
:1008100082DB20E030E04AE050E061DB88859985AA
:10082000820F931FDF91CF910895E7EFF1E02085CC
:100830003185DC01A21BB30B20E030E04AE050E040
:1008400076DB2681378140E050E049DBC90108951D
:10085000909199008091F600892B80939900609186
:10086000A9008091E500682B6093E50040E050E02E
:1008700082E076C608958091A6008F5F8093A600DF
:100880000895009709F4BECD90938A008093890063
:1008900080E00895009709F489CC909365008093D7
:1008A000640080E00895009729F0909361008093A0
:1008B00060004BC080916000909161008130910593
:1008C00019F0029709F141C08091E5008F7E809375
:1008D000E50082E090E09093610080936000809159
:1008E000E1019091E201A091E301B091E4018C500B
:1008F0009E4FAF4FBF4F8093DF009093E000A093D7
:10090000E100B093E20021C08091E5008061809316
:10091000E5004091E1015091E2016091E3017091A5
:10092000E4018091DF009091E000A091E100B0919E
:10093000E200481759076A077B0738F081E090E02A
:100940009093610080936000089580E00895209165
:10095000EB013091EC012F5E3E4F81E04091D800D9
:100960005091D9002417350708F080E008958823B6
:1009700039F090E0909363008093620080E00895E6
:1009800080916200909163008130910519F0029787
:1009900059F016C0DCDF882399F082E090E0909354
:1009A0006300809362000CC085E04DDED0DF8111D2
:1009B00007C081E090E0909363008093620034D799
:1009C00081E0089520919100309192003093DD00F4
:1009D0002093DC0080919700909198008F309105D2
:1009E00030F48C30910548F4892BE9F406C083314A
:1009F000910519F0459731F116C08091E5008F7D82
:100A00008093E50086E0FAD88091DC009091DD00CB
:100A1000803F25E5920710F40098089581369A4E9C
:100A200088F0009A0895203F85E5380728F400985B
:100A300068EB7BE086E08FC821363A4E18F0009ACA
:100A400086E0DCC808958091E50080728093E5001F
:100A50000895CF93DF93C0918D00D0918E00CE0189
:100A6000BCDE9093D9008093D80080918F00909144
:100A70009000B3DE9093DB008093DA002091C001F8
:100A80003091C1012C173D0790F0C9018C1B9D0BC3
:100A900024E0969587952A95E1F78536910510F023
:100AA00084E690E09093C5018093C40104C0109245
:100AB000C5011092C4014091F3015091F4012091BD
:100AC000C4013091C501429FC001439F900D529FC8
:100AD000900D1124E4E6F0E0BF01EDD9EB01709335
:100AE000C5016093C4012091E7013091E8012150D4
:100AF0003109629FC001639F900D729F900D112478
:100B0000BF01D9D96F5F7F4F7093BF016093BE0162
:100B10002CE330E08091E5019091E601A901481BAA
:100B2000590B4C9FC0014D9F900D5C9F900D11245F
:100B3000BF01C1D9261B370B3093BD012093BC01E7
:100B4000E0919700F0919800E531F10508F085C13A
:100B5000ED5EFF4F099477DF80C18FE590E09093C1
:100B6000A8008093A7006FDF81E048D883E1BCC074
:100B70008EE690E09093A8008093A70043DC882342
:100B800009F46BC18091970090919800029709F049
:100B900064C18091C8019091C9019093980080939D
:100BA00097006091C6017091C70183E1D4D755C108
:100BB00081E08093CA0185E090E090939600809355
:100BC000950080E395E79093C7018093C60182E08A
:100BD00090E0909398008093970083E090E017C096
:100BE00081E08093CA0186E090E090939600809324
:100BF000950080EE9EE29093C7018093C60182E04B
:100C000090E0909398008093970087E090E0909315
:100C1000C9018093C80121C12091F1013091F201F5
:100C200044E6429FC001439F900D112421E0209390
:100C3000CA012AE030E03093960020939500DBCF84
:100C40008BE690E09093A8008093A700FCDE809153
:100C5000E50083600AC081E790E09093A80080934C
:100C6000A700F1DE8091E50082608093E50083E1DA
:100C700037C08EE690E09093A8008093A700E3DE53
:100C80008091E5008F7D82608093E500049B07C022
:100C900004988BE090E09093980080939700809167
:100CA000BE018093CA01AEDB882309F4D6C08091CF
:100CB0009700909198000A97B1F488E090E09093A3
:100CC0009800809397008091E5019091E60124E6D9
:100CD000289FB001299F700D112480E13CD780E14D
:100CE00080939A00BAC080E189D7B7C088E690E0C7
:100CF0009093A8008093A700A6DE80919900886059
:100D0000809399008091E50082608093E50080E106
:100D100061D7892B09F0A1C081E090E090938A000F
:100D2000809389008AE090E09093980080939700E8
:100D3000909396008093950090C085E690E0909304
:100D4000A8008093A7007FDE80919900886380933C
:100D500099008091E50082608093E50080E090E05A
:100D6000A2DD882309F479C088E090E09093980090
:100D70008093970072C082E690E09093A8008093E1
:100D8000A70061DE8091E50082608093E50065C088
:100D90005ADE83E133D716C056DE8091E5008260CB
:100DA0008093E50081E190E0909396008093950018
:100DB00068EE73E083E1CFD680E190E090939800F5
:100DC0008093970081E048C03EDE8091E500866018
:100DD0008093E500F7CF37DE8091E5008260809355
:100DE000E5008FE090E0909396008093950068E294
:100DF00073E283E1B0D682E190E090939800809313
:100E000097008091BB0181508093BB018111DACFA3
:100E10008DE090E0D3CF17DE8091E5008260809373
:100E2000E5008091DA009091DB008A36914050F61F
:100E30008DE090E0909398008093970086E590E095
:100E40009093A5008093A400BDCFFDDD8091E500C7
:100E500082608093E50083E0F6DB809197009091BB
:100E600098000F970497B0F08091DA009091DB0022
:100E70008C36914078F083E08093BB018FE090E066
:100E8000909398008093970086E590E09093A5005A
:100E90008093A40080E06BDD95DDDF91CF91D8CC0D
:100EA00061E070E085E157D680919B00880F8E7ECF
:100EB0009B9903C08160039A01C0039880939B00B3
:100EC0008370813019F0823021F008958091B7004D
:100ED00002C08091AA0024C6A39884E18093B70041
:100EE0001092AA00DDCF84B3887F84BB85B3887F4E
:100EF00085BB80E287B987E886B988B7816088BFFB
:100F0000349A369A0895CF93DF93FC012081818132
:100F10009281A381B481860F971FA11DB11DEF019E
:100F2000C20FD11DC20FD11D4D815E81841B950B57
:100F3000A109B10981839283A383B4837E836D83E6
:100F40002F5F283010F4208301C0108223E0B69573
:100F5000A795979587952A95D1F7DF91CF91089519
:100F60001F93CF93DF93349B36C0349A88B7816048
:100F700088BF10918C00133010F0C0E001C0C12F69
:100F800064B175B1D0E0CC0FDD1FFE01E958FF4F11
:100F900085919591B8DFFE01E358FF4FE491F0E0B1
:100FA000EE0FFF1FE357FF4F918380831F5F1330C6
:100FB00018F410938C0002C010928C0087B1807ED0
:100FC000E0918C00F0E0EE0FFF1FE258FF4F94918C
:100FD000892B87B9369ADF91CF911F910895EFE958
:100FE000F1E0108280E582830895B898BA98BC98A1
:100FF000C09AC29AC49A8AE08A95F1F700C086B373
:10100000282F217086B396B384708695907196953B
:101010009695892B822BC098C298C498B89ABA9A90
:10102000BC9A97E0892708958091A3018823F1F164
:101030001092A301DADF90919F012091A0019813F3
:101040001CC02F5F2093A001233081F0213580F058
:101050008091A1018E5F893408F088E48093A1011A
:101060008091A1018093A001992321F090640BC08D
:1010700091111CC01092A00108953CEF320F343240
:1010800028F41092A0019093A2010895293230F023
:101090001092A001906890939F01F5CF98E29093F1
:1010A000A1011092A00180939F0108950895CF930C
:1010B0008091A2018823F9F0982F9F73923049F014
:1010C000943019F0913061F407C086FBCC27C0F949
:1010D0000CC086FD07C004C086FD06C0C3E005C085
:1010E000C0E003C0C2E001C0C4E01092A20182E0EF
:1010F00090E092D38C2FCF910895CF93DF93EC01A2
:101100008091A501882311F0C095D09540E050E072
:101110006D2F81E025D240E050E06C2F80E0DF9120
:10112000CF911EC28DE798E09093A7018093A6010E
:1011300041E050E06FEF80E013D241E050E06FEF0C
:1011400081E00ED2E091A601F091A70180E09FEF2F
:101150000995E6E6F0E081E0838384830895809139
:101160006A00880F80936A00809169008F5F809386
:101170006900E091A601F091A70180E09FEF099539
:1011800080916900833030F01092690081E0809393
:101190006A004ADF8091A40180FD10C0E0916900DF
:1011A000F0E0EA59FF4F808120916A00209590E09D
:1011B000E091A601F091A701922B09940895E82FE0
:1011C000F0E0ED57FF4F84910895E1EBF1E0948357
:1011D00083838581A5C4E091B101F091B201809132
:1011E000B30190E02591359132972817390718F40B
:1011F00081E08093B3018091B301811105C0859195
:10120000959132978093B3018091B301E80FF11D5E
:10121000E80FF11D85919591FC013A962491209358
:10122000B6010895B6D5019906C08DE090E090937F
:101230009800809397008091EB019091EC018F5E74
:101240009E4F9093C3018093C201EFDA9093C10146
:101250008093C0011092B00189E990E09093B201AF
:101260008093B10181E08093B3011092B801109294
:10127000B70181E090E09093B5018093B401ABCFCA
:10128000CF93DF93FC01C591D59143E064ED71E00C
:10129000CE01DCD443E06CEC71E0CE01DF91CF9164
:1012A000D5C4CF93DF9397DFEC01EADF80E0C93A42
:1012B000D80789F48091970090919800009759F091
:1012C00043E064ED71E00C9719F486E990E002C008
:1012D00083E990E0BBD4FE013296859195913297D7
:1012E000019781F53296A591B59132973296859105
:1012F00095912D913C9111972817390708F49C017D
:10130000FE01389645915591C9014217530708F4DB
:10131000CA018D939C939F938F9382E491E09F9356
:101320008F938CEC91E09F938F931AD20F900F9034
:101330000F900F900F900F9063E08CEC91E0DF9195
:10134000CF917BC2DF91CF910895ABCFE1EBF1E07C
:1013500082818F5F82830895E1EBF1E08281815089
:101360008283089538DF0296FC0185919591813042
:101370009105B9F42091B7013091B80121303105C0
:1013800021F02230310541F0089582E090E0909301
:10139000B8018093B70108959093B8018093B70185
:1013A0002BC50895CF93DF93C091B401D091B501BF
:1013B000209759F1C430D105C1F038F4C130D105BE
:1013C00071F02397F1F4C2DF11C0C730D105C8F026
:1013D000C930D10590F02997A1F4C4DF07C061DFBF
:1013E000D093B501C093B40110C0B6DF81E090E0A6
:1013F0009093B5018093B40108C08DE0DF91CF9147
:101400008FC31092B5011092B401DF91CF9108956E
:10141000E2DE2091B4013091B5012530310531F083
:101420002630310569F4FC01389602C0FC0136967D
:10143000849176D381E090E09093B5018093B401DC
:10144000B1CF8091B7019091B8018130910519F029
:10145000029741F01FC08091B4019091B5010697A9
:10146000C9F412C08091B4019091B5018430910506
:1014700041F08630910541F0039761F487E090E0F8
:1014800005C088E090E002C089E090E09093B5014B
:101490008093B40187CF6AE002D5833008F084E0FE
:1014A000E82FF0E0E55FFE4F84910895FF920F93DF
:1014B0001F93CF93DF938FDEEC01F09094008F2D7C
:1014C000EADF082F10919300812FE5DF482FFE01FE
:1014D00032968591959132970197B1F53296A59103
:1014E000B5912D913C9111978091B4019091B501E6
:1014F0008730910519F00897A1F024C0402F50E0E3
:10150000F394F092940010929300FE013896859126
:101510009591841B950B82179307A0F0240F351F1C
:1015200011C050E0109294001F5F10939300FE01D1
:10153000369685919591840F951F2817390710F0DD
:10154000241B350B2D933C9381E090E09093B501E3
:101550008093B401DF91CF911F910F91FF90089577
:10156000E82FF0E0EE0FFF1FE559FF4F80819181DA
:10157000FC010196559171E05523D9F0DC01FC0185
:1015800011962591E22FF0E0E65CFE4F2491FD01DB
:1015900034910296E32FE41BF0E03081A72FA623BD
:1015A00011F0232B02C0209523232083770F515065
:1015B000E3CF0895CF93DF93E82FF0E0EE0FFF1F06
:1015C000E559FF4FC081D181FE012196959141E0FF
:1015D00080E0992391F0FE012591A4912296A61B0B
:1015E000B0E030E0265C3E4F5C91F9012491252368
:1015F00009F0842B440F9150ECCFDF91CF910895E7
:10160000FF93EF93E0917400F09175000995EF91CD
:10161000FF910895FC018591803011F0F1DFFBCF3F
:101620000895FF27E0E230E247FF0CC0419597FFA5
:1016300009C0EDE26095709580959095611D711DD2
:10164000811D911D27FF02C0219530E350E2AA279A
:10165000660F771F881F991FAA1FA41710F0A41BDD
:1016600063955A95A9F7AA3008F0A95FA05DAF93DA
:10167000F395611571058105910541F7ED3211F47E
:10168000EF93F395F21718F43F93F395FBCF8F91F7
:10169000B7DFFA95E1F70895E991F99185918030E6
:1016A00021F0853219F0ACDFF9CF089520E0E894FD
:1016B00055915532C1F3503311F4689455915A3312
:1016C00048F4505390F3220F022E220F220F200DC8
:1016D000250FF4CF0EF4219589919991533619F382
:1016E000533729F1533559F1BC0188279927E894DC
:1016F0005C3621F48991999168945591543639F466
:1017000046EF7EF077FF0DC08FEF9FEF0AC0553791
:101710004AE039F0583540E121F0523642E009F014
:101720000895FF93EF937DDFEF91FF91B7CFFF9384
:10173000EF93FC0181918030B9F362DFFBCFFF931F
:10174000EF9368DFF1CFDF93CF93CDB7DEB7259668
:10175000A3DFCF91DF910895F70181937F01089571
:10176000DF93CF93CDB7DEB72596E0917400F0916B
:101770007500EF93FF93ECEAFBE0E0937400F093C5
:101780007500FF92EF92E990F99086DFF7011082E1
:10179000EF90FF90FF91EF91E0937400F09375004C
:1017A000CF91DF910895089561E070E080E0D3D19A
:1017B00081E08093A30108958091CB018F5F809396
:1017C000CB016EE170E082E0C6C11895FC01680FA4
:1017D000791F8FEF9FEFE617F707C9F02191822756
:1017E000282F22952827022E269526952025022E81
:1017F000269520252770082E892F26950794279552
:10180000902D82270694279590258227E4CF08956E
:1018100082E185BDBB980895029ABB9ABC0185E020
:101820009AC1029ABB9A08950298BB980895029BA8
:1018300002C0BB9A0895BB980895EF92FF921F9340
:10184000CF93DF931F92CDB7DEB7182FE82EF92E76
:101850008E2D811B861750F4F70180818053698398
:10186000AEDCF70181937F016981F2CF0F90DF91A8
:10187000CF911F91FF90EF9008959F938F9382E4F3
:1018800091E09F938F938CEC91E09F938F9368DF0F
:101890000F900F900F900F900F900F9063E08CECD3
:1018A00091E0CBCFEACF809197009091980087305C
:1018B000910519F130F48230910591F00397E9F028
:1018C0003BC08A30910561F0B8F10D970397A0F500
:1018D00043E06CEC71E08091A4009091A500B6C14A
:1018E0008091CA019091A600891710F0891B01C050
:1018F00080E090E0C2DF84E51CC080919A006AD14C
:101900000097D1F064E670E0D6D2CB016CE370E0D2
:10191000D2D244E6469F9001479F300D1124820F9A
:10192000931FABDF8091CB0180FF0DC08091CC0174
:1019300080588093CC0108958091D8009091D9006F
:10194000815191409ACF0895CF9367E070E083E092
:1019500002D17FD8ACDBC82F882309F45DC0809109
:10196000F9019091FA0124E6289FB001299F700D9A
:1019700011248FE0F0D080919700909198008131F0
:10198000910548F48D309105A0F48330910541F024
:10199000079731F012C0449781F481E02FD109C03C
:1019A0008091950090919600909398008093970075
:1019B00068C010929800109297008091B7019091A2
:1019C000B801892B39F481E090E09093B8018093BD
:1019D000B70122C0C230A1F018F4C13041F01CC0E0
:1019E000C330B9F0C430C1F485E090E014C08091F8
:1019F000970090919800892B79F483E090E00BC0D8
:101A00008091970090919800892B31F484E090E0C8
:101A100002C086E090E0D9DB8091B60177D080915A
:101A2000B7019091B8018130910531F018F002971B
:101A300071F019C038DF0BC08091CB0180FF07C067
:101A40008091D4019091D501A091D60106C08091DA
:101A5000CC019091CD01A091CE018093660090932E
:101A60006700A0936800009905C0809168008068B5
:101A700080936800039905C0809166008068809318
:101A80006600CF910895ECE9F0E08FEF87838683BD
:101A900085838483838382838183808308951092E6
:101AA000DC01E8EBF0E09FEF81E09083138212828B
:101AB0008183349620E0E83DF207B9F708952FB707
:101AC000F8948091DF01A82FA770B0E0A456BF4F13
:101AD000EC91EF3F71F09FEF9C9391E0980F97701E
:101AE000807F892B8093DF018091E001815080937A
:101AF000E0012FBFEF3F49F0F0E0EE0FFF1FE95B81
:101B0000FE4F0590F491E02D09940895E82FF0E040
:101B1000EE0FFF1FE95BFE4F0590F491E02D099455
:101B20004FB7F8949091DF012091E001E92FE29501
:101B3000E770F0E0E456FF4F508131E0320F5F3F35
:101B400011F04FBF08958083905F9F773093E0013D
:101B50009093DF01F6CF2FB7F8949091DC01E8EB7A
:101B6000F0E0308138130DC09093DC017383628301
:101B70001182672BE9F48FEF808381E0818391509C
:101B800015C0349630E0E83DF30759F7E8EBF0E094
:101B900030813F3F31F480837383628311829F5F82
:101BA00005C0349630E0E83DF30791F79093DC01EF
:101BB0002FBF08959FB7F894E8EBF0E02081281339
:101BC00002C0618305C0349620E0E83DF207B1F71A
:101BD0009FBF08952FB7F894E8EBF0E09081981339
:101BE00004C0828193812FBF0895349690E0E83D30
:101BF000F907A1F72FBF80E090E008959FB7F89410
:101C0000E8EBF0E02081281307C08FEF8083138278
:101C1000128281E0818305C0349620E0E83DF2071E
:101C200089F79FBF0895442329F0FC016193CF01F8
:101C30004150F9CF0895442341F0FC012191CF0197
:101C4000FB012193BF014150F6CF0895DB014150C4
:101C500028F0FC01019625912D93F9CF08958091EC
:101C6000DE019DE0899F802D11248F5E8093DE012F
:101C700008951F920F920FB60F9211241F932F9366
:101C80003F934F935F936F937F938F939F93AF9304
:101C9000BF93CF93DF93EF93FF938091DD0182BFDA
:101CA000369AC8EBD0E01FEF88818F3F91F0998181
:101CB00091110FC02A813B81215031093B832A8336
:101CC000232B39F42DDF18838091DC018150809320
:101CD000DC01249680E0C83DD80731F78091E1010E
:101CE0009091E201A091E301B091E4010196A11D60
:101CF000B11D8093E1019093E201A093E301B093C1
:101D0000E401FF91EF91DF91CF91BF91AF919F914E
:101D10008F917F916F915F914F913F912F911F9183
:101D20000F900FBE0F901F9018958F929F92BF92A9
:101D3000CF92DF92EF92FF920F931F93CF93DF9397
:101D400000D0CDB7DEB74C017B01BA0162507109FA
:101D50006C01C60ED71EBFB6F89449835A8336DD90
:101D60008C01F6019183808349815A81B701C401B6
:101D70001AD1BFBEC8010F900F90DF91CF911F9174
:101D80000F91FF90EF90DF90CF90BF909F908F903A
:101D90000895CF93019ACFB7F8944CE050E062E1F8
:101DA00070E087EF91E0EFD06CE070E087EF91E0BA
:101DB0000DDD892B49F0019889E590E09093A5000D
:101DC0008093A400CFBF16C042E150E060E070E015
:101DD00085EE91E0D8D062E170E085EE91E0F6DC2E
:101DE000CFBF892B39F001988CE590E09093A50046
:101DF0008093A400CF910895CF93CFB7F8946AE071
:101E000070E087EF91E0E2DC9093020280930102A0
:101E100060E170E085EE91E0D9DC9093F60180936B
:101E2000F5014CE050E062E170E087EF91E0BBD05B
:101E300042E150E060E070E085EE91E0B4D0CFBFC9
:101E4000CF91089541E050E06FEF82E089DB10B858
:101E500069D91092DF011092E00121DE14DE83B710
:101E6000856083BF82EB8093DD0189B7816089BF84
:101E7000D9D939D8CDDC789467DD9EDC95DCAFD834
:101E80009FE088E10FB6F894A89581BD0FBE91BD83
:101E900023D815DE64D964D8CADCA895FACF991B7B
:101EA00079E004C0991F961708F0961B881F7A9551
:101EB000C9F780950895AA1BBB1B51E107C0AA1F53
:101EC000BB1FA617B70710F0A61BB70B881F991FDB
:101ED0005A95A9F780959095BC01CD010895052EDE
:101EE00097FB16F400940FD057FD05D02AD007FCBD
:101EF00002D046F408C050954095309521953F4F4B
:101F00004F4F5F4F089590958095709561957F4FE5
:101F10008F4F9F4F0895A29FB001B39FC001A39F11
:101F200001D0B29F700D811D1124911D0895F3DF22
:101F3000A59F900DB49F900DA49F800D911D11241D
:101F40000895A1E21A2EAA1BBB1BFD010DC0AA1FFA
:101F5000BB1FEE1FFF1FA217B307E407F50720F012
:101F6000A21BB30BE40BF50B661F771F881F991F8D
:101F70001A9469F760957095809590959B01AC01D6
:101F8000BD01CF010895DC01CB01FC01E199FECF39
:101F900006C0FFBBEEBBE09A31960DB20D924150E8
:101FA0005040B8F70895DC01A40FB51F41505040D0
:101FB00040F0CB01840F951F2E9105D04150504029
:101FC000D8F70895262FE199FECF9FBB8EBBE09AEC
:101FD00001970DB2021631F02DBB0FB6F894E29ABC
:0A1FE000E19A0FBE0895F894FFCFB8
:101FEA00010001000100065B4F01FE2901220115D3
:041FFA00010E0100D3
:00000001FF
