:100000000C94D1000C942E030C94EE000C94EE0092
:100010000C94EE000C94EE000C94EE000C94EE00A8
:100020000C94EE000C94EE000C94D30E0C94EE00A5
:100030000C94EE000C94EE000C94EE000C94EE0088
:100040000C94EE000C94EE000C94EE000C94EE0078
:100050000C94EE00E8058107F5055F0617062F06EC
:100060004B066B06BB0681077A06E40604071207F7
:100070007707180732073A075C077707E5057171BC
:1000800038716D7671785B71383971386D6D787350
:10009000777C503D50787C50547879543E385E04DB
:1000A0003D54385E00360160014B01000001010241
:1000B000023F065B4F666D7D077F6F777C395E7907
:1000C000717C50546D78730700D70001012B010F2C
:1000D000011D01F300E500E2000300000000000143
:1000E000000E501C54F0000100F10101002C01072A
:1000F00078043DFE000100EF0101001E00075404DA
:100100003D0C010100EB0104007800070000781AA3
:10011000010100E70101001E00073E385E280101D1
:1001200000E5010F003C000773773E36010100F344
:10013000010A00630007007354010A6403003802D7
:1001400038043806013801320032043505350538E7
:100150000302380438003808053207320232063804
:1001600007380632033204320102040810204080AE
:100170002530337500580CB003610C360D980C9B7C
:100180000C7103A00A490A190A1B0A210A270AD777
:100190000A840A7C090F0496034D0362036604A7D0
:1001A000070011241FBECFE5D8E0DEBFCDBF10E0B1
:1001B000A0E6B0E0EEE6F1E202C005900D92A437B1
:1001C000B107D9F722E0A4E7B0E001C01D92A33047
:1001D000B207E1F70E94C40F0C94B5100C946B0C9D
:1001E0000F931F9380916400909165008330910577
:1001F00009F47BC030F48130910519F1029799F12F
:1002000018C18530910509F4E0C008F49DC0069737
:1002100009F00FC18EE090E09093980080939700D2
:1002200081E890E09093A5008093A40060EE7EE2C8
:1002300081E00E94450E81E080939A0081E090E089
:10024000F4C08091E500837F109283009091A60016
:10025000909382004091E1015091E2016091E301AD
:100260007091E401CCC08091E500982F9B7F98604D
:100270009093E5004091E1015091E2016091E3012A
:100280007091E40100917E0010917F002091800028
:10029000309181004017510762077307F0F0909189
:1002A00083009F5F909383009091A60090938200BB
:1002B0004C595F4F6F4F7F4F40937A0050937B00B4
:1002C00060937C0070937D0023E030E03093650004
:1002D00020936400837F8093E500809183008430C5
:1002E00008F4A7C086E090E0A0C08091E500837F7D
:1002F0008093E5004091E1015091E2016091E301BA
:100300007091E40100917A0010917B0020917C00B3
:1003100030917D00401751076207730708F489C0C8
:1003200040575E4F6F4F7F4F40937600509377005A
:10033000609378007093790024E030E0309365009A
:100340002093640084606EC08091E500982F977FB1
:1003500094609093E5004091E1015091E201609139
:10036000E3017091E40100917600109177002091F3
:100370007800309179004017510762077307A8F0A1
:100380004C595F4F6F4F7F4F40937A0050937B00E3
:1003900060937C0070937D0025E030E03093650031
:1003A00020936400837F8093E50080918200909188
:1003B000A600891739F081E090E090936500809362
:1003C000640038C08093820034C08091E500837F50
:1003D0008093E5004091E1015091E2016091E301D9
:1003E0007091E40100917A0010917B0020917C00D3
:1003F00030917D004017510762077307D0F04853D2
:100400005F4F6F4F7F4F40937E0050937F0060930C
:1004100080007093810022E030E0309365002093EB
:10042000640088608093E50004C090936500809329
:10043000640080E01F910F91089580918900909150
:100440008A008330910509F4E9C040F481309105B8
:1004500009F46EC0029709F490C0FEC08430910583
:1004600019F00597E1F1F8C082EA90E09093A800B6
:100470008093A7008091E500837F80628093E500F0
:100480008091E1019091E201A091E301B091E4013A
:10049000009B0FC080579E4FAF4FBF4F809385008A
:1004A00090938600A0938700B093880085E090E049
:1004B0003AC040918500509186006091870070910C
:1004C000880084179507A607B70708F4C5C083E11D
:1004D00090E0909398008093970081E0089582EADD
:1004E00090E09093A8008093A7008091E500837F1F
:1004F00080628093E5008091850090918600A091B4
:100500008700B09188004091E1015091E201609133
:10051000E3017091E401481759076A077B0708F463
:100520009BC082E090E090938A008093890094C001
:100530008091E500837F1092A6004091E1015091E7
:10054000E2016091E3017091E40140575E4F6F4F0B
:100550007F4F40938500509386006093870070938F
:1005600088001092840022E030E030938A002093CB
:10057000890084608093E5006FC08091E1019091D3
:10058000E201A091E301B091E40100990FC088510C
:100590009C4FAF4FBF4F8093850090938600A093F0
:1005A0008700B093880084E090E0BDCF2091E50003
:1005B000277D24602093E5004091850050918600BE
:1005C000609187007091880084179507A607B70788
:1005D00030F023E030E030938A00209389002091AE
:1005E000A60030918400321761F080579E4FAF4FC4
:1005F000BF4F8093850090938600A0938700B093AF
:100600008800209384008091CA01281728F181E096
:1006100090E090938A008093890008950E94F000F2
:100620008823D1F082E090E090938A008093890043
:100630008091E1019091E201A091E301B091E40188
:1006400080579E4FAF4FBF4F809385009093860099
:10065000A0938700B093880080E008951F920F92C6
:100660000FB60F9211240F900FBE0F901F90189588
:100670008AE090E09093980080939700089590917D
:10068000CB01892311F00C94980C0C949B0C0895C9
:100690000895089508950895089560E177E282E14C
:1006A0000E94450E80918B008F5F823118F48093F9
:1006B0008B00089510928B00049A08950895089570
:1006C00008950895809195009091960090939800D8
:1006D00080939700089508951092A9001092F60053
:1006E00008958091E5008F7D8093E50083E190E09F
:1006F00090939800809397008EE790E09093A500E8
:100700008093A4008DE090E09093960080939500F4
:100710008091FB019091FC0124E6289FB001299F64
:10072000700D112483E10C94450E0895089581E025
:100730008093DE0008958093CA0150939600409301
:1007400095003093C7012093C60182E090E090931A
:100750009800809397007093C9016093C801089531
:1007600080919700909198008C30910531F0843100
:10077000910559F0892BC1F508C081E00E94980EBF
:10078000109298001092970008950E947C09019B96
:1007900045C081E090E09093650080936400909361
:1007A00061008093600090938A008093890080911B
:1007B000EF018093CA0184E090E0909396008093CB
:1007C000950080E395E79093C7018093C60182E08E
:1007D00090E0909398008093970083E090E090934E
:1007E000C9018093C8010895BB988CE090E0909374
:1007F00098008093970080E10E94980E8091FB0101
:100800009091FC0124E6289FB001299F700D1124CE
:1008100081E00E94450E81E080939A00089508953A
:100820000895CF93DF93C7EFD1E0AE81BF819C01E4
:100830000E94481020E030E04AE050E00E9423107F
:1008400088859985820F931FDF91CF910895CF936B
:10085000DF93C7EFD1E0AE81BF819C010E944810B9
:1008600020E030E04AE050E00E942310888599851E
:10087000820F931FDF91CF910895E7EFF1E020857C
:100880003185DC01A21BB30B20E030E04AE050E0F0
:100890000E9457102681378140E050E00E942310CB
:1008A000C9010895909199008091F600892B809359
:1008B00099006091A9008091E500682B6093E500A4
:1008C00040E050E082E00C94340B08958091A60043
:1008D0008F5F8093A6000895009711F40C941D0279
:1008E00090938A008093890080E00895009711F426
:1008F0000C94F000909365008093640080E008956C
:10090000009729F090936100809360004BC0809124
:100910006000909161008130910519F0029709F112
:1009200041C08091E5008F7E8093E50082E090E0F9
:1009300090936100809360008091E1019091E201C9
:10094000A091E301B091E4018C509E4FAF4FBF4F97
:100950008093DF009093E000A093E100B093E20069
:1009600021C08091E50080618093E5004091E10124
:100970005091E2016091E3017091E4018091DF0008
:100980009091E000A091E100B091E2004817590772
:100990006A077B0738F081E090E0909361008093D4
:1009A0006000089580E008952091EB013091EC0102
:1009B0002F5E3E4F81E04091D8005091D90024171E
:1009C000350708F080E00895882339F090E090938F
:1009D00063008093620080E00895809162009091AE
:1009E00063008130910519F0029761F01AC00E94EE
:1009F000D4048823B1F082E090E090936300809368
:100A000062000FC085E00E943F030E94D404811160
:100A100008C081E090E090936300809362000E94A0
:100A20009B0C81E0089520919100309192003093C9
:100A3000DD002093DC0080919700909198008F302A
:100A4000910530F48C30910548F4892BF1F406C0FF
:100A50008331910519F0459749F117C08091E50060
:100A60008F7D8093E50086E00E94980E8091DC00E7
:100A70009091DD00803F25E5920710F400980895DD
:100A800081369A4E98F0009A0895203F85E5380700
:100A900030F4009868EB7BE086E00C94450E21363C
:100AA0003A4E20F0009A86E00C94980E08958091BA
:100AB000E50080728093E5000895CF93DF93C091A5
:100AC0008D00D0918E00CE010E9411049093D90028
:100AD0008093D80080918F00909190000E94110423
:100AE0009093DB008093DA002091C0013091C10126
:100AF0002C173D0790F0C9018C1B9D0B24E09695A7
:100B000087952A95E1F78536910510F084E690E007
:100B10009093C5018093C40104C01092C501109246
:100B2000C4014091F3015091F4012091C40130912E
:100B3000C501429FC001439F900D529F900D11240B
:100B4000E4E6F0E0BF010E940F10EB017093C501D5
:100B50006093C4012091E7013091E80121503109EF
:100B6000629FC001639F900D729F900D1124BF0181
:100B70000E940F106F5F7F4F7093BF016093BE01A3
:100B80002CE330E08091E5019091E601A901481B3A
:100B9000590B4C9FC0014D9F900D5C9F900D1124EF
:100BA000BF010E940F10261B370B3093BD0120930D
:100BB000BC01E0919700F0919800E531F10508F053
:100BC000A0C1E65DFF4F0C9442100E94570599C1E9
:100BD0008DE890E09093A8008093A7000E945705AD
:100BE00081E00E94980E83E1C3C08CE990E090936D
:100BF000A8008093A7000E941D02882309F481C1E8
:100C00008091970090919800029709F07AC18091A5
:100C1000C8019091C90190939800809397006091CA
:100C2000C6017091C70183E10E94450E6AC181E04F
:100C30008093CA0185E090E09093960080939500A0
:100C400080E395E79093C7018093C60182E090E02E
:100C5000909398008093970083E090E017C081E024
:100C60008093CA0186E090E090939600809395006F
:100C700080EE9EE29093C7018093C60182E090E0EF
:100C8000909398008093970087E090E09093C9013B
:100C90008093C80136C12091F1013091F20144E600
:100CA000429FC001439F900D112421E02093CA016F
:100CB0002AE030E03093960020939500DBCF89E95D
:100CC00090E09093A8008093A7000E945705809120
:100CD000E50083600BC08FE990E09093A8008093BB
:100CE000A7000E9457058091E50082608093E5008F
:100CF00083E13AC08CE990E09093A8008093A7002C
:100D00000E9457058091E5008F7D82608093E50009
:100D1000049B07C004988BE090E090939800809328
:100D200097008091BE018093CA010E941D02882312
:100D300009F4E7C080919700909198000A97B9F460
:100D400088E090E090939800809397008091E5016F
:100D50009091E60124E6289FB001299F700D11248F
:100D600080E10E94450E80E180939A00CAC080E134
:100D70000E94980EC6C086E990E09093A8008093E8
:100D8000A7000E9457058091990088608093990080
:100D90008091E50082608093E50080E10E94840EEE
:100DA000892B09F0AEC081E090E090938A00809397
:100DB00089008AE090E09093980080939700909348
:100DC0009600809395009DC083E990E09093A800E1
:100DD0008093A7000E9457058091990088638093B3
:100DE00099008091E50082608093E50080E090E0CA
:100DF0000E948004882309F484C088E090E09093E6
:100E00009800809397007DC080E990E09093A800BF
:100E10008093A7000E9457058091E500826080932F
:100E2000E5006FC00E94570583E10E94980E18C02C
:100E30000E9457058091E50082608093E50081E182
:100E400090E0909396008093950068EE73E083E1C4
:100E50000E94450E80E190E0909398008093970067
:100E600081E04DC00E9457058091E5008660809327
:100E7000E500F6CF0E9457058091E50082608093DF
:100E8000E5008FE090E0909396008093950068E2F3
:100E900073E283E10E94450E82E190E09093980016
:100EA000809397008091BB0181508093BB01811199
:100EB000D7CF8DE090E0D0CF0E9457058091E5001C
:100EC00082608093E5008091DA009091DB008A36A1
:100ED000914030F68DE090E09093980080939700D9
:100EE00084E890E09093A5008093A400B9CF0E947D
:100EF00057058091E50082608093E50083E00E94C1
:100F00003F0380919700909198000F970497B0F05D
:100F10008091DA009091DB008C36914078F083E08C
:100F20008093BB018FE090E09093980080939700AE
:100F300084E890E09093A5008093A40080E00E9454
:100F4000E4040E941305DF91CF910C94520461E0F8
:100F500070E085E10E94450E80919B00880F8E7E97
:100F60009B9903C08160039A01C0039880939B0002
:100F70008370813019F0823021F008958091B7009C
:100F800002C08091AA000C942A0EA39884E1809359
:100F9000B7001092AA000C94A70784B3887F84BB83
:100FA00085B3887F85BB80E287B980B78F7180BFAA
:100FB00080B7806880BF87E886B988B7816088BFBE
:100FC000349A369A0895CF93DF93FC012081818172
:100FD0009281A381B481860F971FA11DB11DEF01DE
:100FE000C20FD11DC20FD11D4D815E81841B950B97
:100FF000A109B10981839283A383B4837E836D8326
:101000002F5F283010F4208301C0108223E0B695B2
:10101000A795979587952A95D1F7DF91CF91089558
:101020001F93CF93DF93349B37C0349A88B7816086
:1010300088BF10918C00133010F0C0E001C0C12FA8
:1010400064B175B1D0E0CC0FDD1FFE01EB55FF4F51
:10105000859195910E94E307FE01E555FF4FE491CC
:10106000F0E0EE0FFF1FE357FF4F918380831F5F78
:10107000133018F410938C0002C010928C0087B1CA
:10108000807EE0918C00F0E0EE0FFF1FE455FF4FF3
:101090009491892B87B9369ADF91CF911F9108954A
:1010A000EFE9F1E0108280E582830895B898BA985C
:1010B000BC98C09AC29AC49A8AE08A95F1F700C097
:1010C00086B3282F217086B396B38470869590716D
:1010D00096959695892B822BC098C298C498B89AF9
:1010E000BA9ABC9A97E0892708958091A301882332
:1010F00009F43FC01092A3010E94560890919F01ED
:101100002091A00198131CC02F5F2093A0012330D1
:1011100081F0213580F08091A1018E5F893408F043
:1011200088E48093A1018091A1018093A00199237B
:1011300021F090640BC091111CC01092A001089581
:101140003CEF320F343228F41092A0019093A201A8
:101150000895293230F01092A001906890939F0179
:10116000F5CF98E29093A1011092A00180939F0186
:1011700008950895CF938091A201882301F1982FBB
:101180009F73923049F0943019F0913061F407C0A8
:1011900086FBCC27C0F90CC086FD07C004C086FDC5
:1011A00006C0C3E005C0C0E003C0C2E001C0C4E0A7
:1011B0001092A20182E090E00E94920C8C2FCF91BD
:1011C0000895CF93DF93EC018091A501882311F05E
:1011D000C095D09540E050E06D2F81E00E94340B27
:1011E00040E050E06C2F80E0DF91CF910C94340B05
:1011F00081EE98E09093A7018093A60141E050E032
:101200006FEF80E00E94340B41E050E06FEF81E02F
:101210000E94340BE091A601F091A70180E09FEFBE
:101220000995E6E6F0E081E0838384830895809168
:101230006A00880F80936A00809169008F5F8093B5
:101240006900E091A601F091A70180E09FEF099568
:1012500080916900833038F01092690081E08093BA
:101260006A000E9475088091A40180FD10C0E09181
:101270006900F0E0EA59FF4F808120916A002095D3
:1012800090E0E091A601F091A701922B09940895B6
:10129000E82FF0E0EF54FF4F84910895E1EBF1E087
:1012A0009483838385810C942A0EE091B101F0919F
:1012B000B2018091B30190E02591359132972817C2
:1012C000390718F481E08093B3018091B301811153
:1012D00005C08591959132978093B3018091B301B8
:1012E000E80FF11DE80FF11D85919591FC013A96EB
:1012F00024912093B60108950E94630F019906C0BE
:101300008DE090E090939800809397008091EB019E
:101310009091EC018F5E9E4F9093C3018093C20128
:101320000E943D049093C1018093C0011092B001CE
:1013300087EC90E09093B2018093B10181E08093BB
:10134000B3011092B8011092B70181E090E0909340
:10135000B5018093B4010C945509CF93DF93FC0140
:10136000C591D59143E064ED71E0CE010E94C00EBD
:1013700043E06CEC71E0CE01DF91CF910C94C00E94
:10138000CF93DF930E945509EC010E94AD0980E0E4
:10139000C73DD80791F480919700909198000097ED
:1013A00061F043E064ED71E00C9719F484EC90E097
:1013B00002C081EC90E00E94C00EFE013296859141
:1013C00095913297019791F53296A591B591329703
:1013D0003296859195912D913C9111972817390757
:1013E00008F49C01FE01389645915591C9014217B8
:1013F000530708F4CA018D939C939F938F9380E7C2
:1014000091E09F938F938CEC91E09F938F930E9438
:10141000340C0F900F900F900F900F900F9063E08F
:101420008CEC91E0DF91CF910C94A40CDF91CF91E3
:1014300008950C94C009E1EBF1E082818F5F828313
:101440000895E1EBF1E082818150828308950E944A
:1014500055090296FC018591959181309105C1F461
:101460002091B7013091B8012130310521F02230AF
:10147000310541F0089582E090E09093B8018093A7
:10148000B70108959093B8018093B7010C949A0F17
:101490000895CF93DF93C091B401D091B501209707
:1014A00081F1C430D105D9F040F4C130D10581F0CB
:1014B000239719F50E941B0A14C0C730D105E8F024
:1014C000C930D105A8F02997C1F40E94270A09C0A4
:1014D0000E94C009D093B501C093B40112C00E940C
:1014E000210A81E090E09093B5018093B40109C096
:1014F0008DE0DF91CF910C942A0E1092B5011092DD
:10150000B401DF91CF9108950E9455092091B40153
:101510003091B5012530310531F02630310571F4B7
:10152000FC01389602C0FC01369684910E942A0E76
:1015300081E090E09093B5018093B4010C94490A46
:101540008091B7019091B8018130910519F002970F
:1015500041F01FC08091B4019091B5010697C9F484
:1015600012C08091B4019091B5018430910541F091
:101570008630910541F0039761F487E090E005C063
:1015800088E090E002C089E090E09093B5018093FC
:10159000B4010C94490A6AE00E940310833008F0F9
:1015A00084E0E82FF0E0E75CFE4F84910895FF921D
:1015B0000F931F93CF93DF930E945509EC01F09096
:1015C00094008F2D0E94CB0A082F10919300812F39
:1015D0000E94CB0A482FFE01329685919591329751
:1015E0000197B1F53296A591B5912D913C91119746
:1015F0008091B4019091B5018730910519F0089759
:10160000A1F024C0402F50E0F394F0929400109287
:101610009300FE01389685919591841B950B821756
:101620009307A0F0240F351F11C050E010929400D2
:101630001F5F10939300FE01369685919591840F5C
:10164000951F2817390710F0241B350B2D933C9359
:1016500081E090E09093B5018093B401DF91CF9148
:101660001F910F91FF900895E82FF0E0EE0FFF1FFC
:10167000E559FF4F80819181FC010196559171E000
:101680005523D9F0DC01FC0111962591E22FF0E001
:10169000E859FE4F2491FD0134910296E32FE41B9B
:1016A000F0E03081A72FA62311F0232B02C0209554
:1016B00023232083770F5150E3CF0895CF93DF93F7
:1016C000E82FF0E0EE0FFF1FE559FF4FC081D181F9
:1016D000FE012196959141E080E0992391F0FE0171
:1016E0002591A4912296A61BB0E030E028593E4FE8
:1016F0005C91F9012491252309F0842B440F91502A
:10170000ECCFDF91CF910895FF93EF93E0917400B8
:10171000F09175000995EF91FF910895FC01859175
:10172000803011F0F1DFFBCF0895FF27E0E230E2D7
:1017300047FF0CC0419597FF09C0EDE26095709599
:1017400080959095611D711D811D911D27FF02C01F
:10175000219530E350E2AA27660F771F881F991F53
:10176000AA1FA41710F0A41B63955A95A9F7AA30D5
:1017700008F0A95FA05DAF93F39561157105810530
:10178000910541F7ED3211F4EF93F395F21718F448
:101790003F93F395FBCF8F91B7DFFA95E1F708956B
:1017A000E991F9918591803021F0853219F0ACDF13
:1017B000F9CF089520E0E89455915532C1F35033A4
:1017C00011F4689455915A3348F4505390F3220F12
:1017D000022E220F220F200D250FF4CF0EF421959B
:1017E00089919991533619F3533729F1533559F1AA
:1017F000BC0188279927E8945C3621F48991999156
:1018000068945591543639F446EF7EF077FF0DC059
:101810008FEF9FEF0AC055374AE039F0583540E165
:1018200021F0523642E009F00895FF93EF937DDFF7
:10183000EF91FF91B7CFFF93EF93FC01819180303F
:10184000B9F362DFFBCFFF93EF9368DFF1CFDF9354
:10185000CF93CDB7DEB72596A3DFCF91DF91089563
:10186000F70181937F010895DF93CF93CDB7DEB762
:101870002596E0917400F0917500EF93FF93E0E3FB
:10188000FCE0E0937400F0937500FF92EF92E99012
:10189000F99086DFF7011082EF90FF90FF91EF91B2
:1018A000E0937400F0937500CF91DF91089508954F
:1018B00061E070E080E00E94450E81E08093A3012A
:1018C00008958091CB018F5F8093CB016EE170E032
:1018D00082E00C94450E1895FC01680F791F8FEF7C
:1018E0009FEFE617F707C9F021918227282F22954D
:1018F0002827022E269526952025022E269520257E
:101900002770082E892F269507942795902D8227DA
:101910000694279590258227E4CF089582E185BD1E
:10192000BB980895029ABB9ABC0185E00C94450EC1
:10193000029ABB9A08950298BB980895029B02C030
:10194000BB9A0895BB980895EF92FF921F93CF938F
:10195000DF931F92CDB7DEB7182FE82EF92E8E2D0C
:10196000811B861758F4F7018081805369830E9498
:101970004809F70181937F016981F1CF0F90DF91D1
:10198000CF911F91FF90EF9008959F938F9380E7E1
:1019900091E09F938F938CEC91E09F938F930E94A3
:1019A000340C0F900F900F900F900F900F9063E0FA
:1019B0008CEC91E00C94A40C0C94C50C80919700D5
:1019C000909198008730910529F130F4823091058B
:1019D00099F00397F9F041C08A30910569F0E8F178
:1019E0000D970397D0F543E06CEC71E08091A40073
:1019F0009091A5000C94C00E8091CA019091A60010
:101A0000891710F0891B01C080E090E00E94C50C8E
:101A100084E520C080919A000E94840E0097E9F02E
:101A200064E670E00E940F10CB016CE370E00E944E
:101A30000F1044E6469F9001479F300D1124820FFE
:101A4000931F0E94C50C8091CB0180FF0EC0809136
:101A5000CC0180588093CC0108958091D80090915A
:101A6000D900815191400C94C50C0895CF9367E043
:101A700070E083E00E94450E0E945D050E94BA0856
:101A8000C82F882309F460C08091F9019091FA0170
:101A900024E6289FB001299F700D11248FE00E9439
:101AA000450E80919700909198008131910548F4FE
:101AB0008D309105A8F48330910549F0079739F0EE
:101AC00013C0449789F481E00E94980E09C0809168
:101AD00095009091960090939800809397006BC02A
:101AE00010929800109297008091B7019091B801E0
:101AF000892B39F481E090E09093B8018093B7018D
:101B000023C0C230A1F018F4C13041F01DC0C33071
:101B1000B9F0C430C9F485E090E014C0809197001A
:101B200090919800892B81F483E090E00BC0809124
:101B3000970090919800892B39F484E090E002C0DE
:101B400086E090E00E944E098091B6010E94200E2E
:101B50008091B7019091B8018130910539F018F06A
:101B6000029779F01AC00E94DE0C0BC08091CB0165
:101B700080FF07C08091D4019091D501A091D6013A
:101B800006C08091CC019091CD01A091CE018093AF
:101B9000660090936700A0936800009905C080914B
:101BA0006800806880936800039905C08091660092
:101BB000806880936600CF910895ECE9F0E08FEFA4
:101BC00087838683858384838383828381838083E1
:101BD00008951092DC01E8EBF0E09FEF81E0908344
:101BE000138212828183349620E0E83DF207B9F730
:101BF00008952FB7F8948091DF01A82FA770B0E067
:101C0000A456BF4FEC91EF3F71F09FEF9C9391E092
:101C1000980F9770807F892B8093DF018091E0017E
:101C200081508093E0012FBFEF3F49F0F0E0EE0FCD
:101C3000FF1FEB58FE4F0590F491E02D0994089595
:101C4000E82FF0E0EE0FFF1FEB58FE4F0590F491E8
:101C5000E02D09944FB7F8949091DF012091E001B5
:101C6000E92FE295E770F0E0E456FF4F508131E054
:101C7000320F5F3F11F04FBF08958083905F9F77D1
:101C80003093E0019093DF01F6CF2FB7F894909155
:101C9000DC01E8EBF0E0308138130DC09093DC01FB
:101CA000738362831182672BE9F48FEF808381E075
:101CB0008183915015C0349630E0E83DF30759F721
:101CC000E8EBF0E030813F3F31F48083738362833F
:101CD00011829F5F05C0349630E0E83DF30791F72D
:101CE0009093DC012FBF08959FB7F894E8EBF0E0E4
:101CF0002081281302C0618305C0349620E0E83DAE
:101D0000F207B1F79FBF08952FB7F894E8EBF0E022
:101D10009081981304C0828193812FBF08953496D7
:101D200090E0E83DF907A1F72FBF80E090E008952B
:101D30009FB7F894E8EBF0E02081281307C08FEFFD
:101D400080831382128281E0818305C0349620E073
:101D5000E83DF20789F79FBF0895442329F0FC016D
:101D60006193CF014150F9CF0895442341F0FC0124
:101D70002191CF01FB012193BF014150F6CF08957E
:101D8000DB01415028F0FC01019625912D93F9CFFC
:101D900008958091DE019DE0899F802D11248F5E42
:101DA0008093DE0108951F920F920FB60F921124B7
:101DB0001F932F933F934F935F936F937F938F93D3
:101DC0009F93AF93BF93CF93DF93EF93FF93369A95
:101DD000C8EBD0E01FEF88818F3F99F09981911176
:101DE00010C02A813B81215031093B832A83232B58
:101DF00041F40E942A0E18838091DC018150809367
:101E0000DC01249680E0C83DD80729F78091E101E4
:101E10009091E201A091E301B091E4010196A11D2E
:101E2000B11D8093E1019093E201A093E301B0938F
:101E3000E401FF91EF91DF91CF91BF91AF919F911D
:101E40008F917F916F915F914F913F912F911F9152
:101E50000F900FBE0F901F9018958F929F92BF9278
:101E6000CF92DF92EF92FF920F931F93CF93DF9366
:101E700000D0CDB7DEB74C017B01BA0162507109C9
:101E80006C01C60ED71EBFB6F89449835A830E94D0
:101E90006C0C8C01F6019183808349815A81B701D2
:101EA000C4010E949410BFBEC8010F900F90DF9133
:101EB000CF911F910F91FF90EF90DF90CF90BF9047
:101EC0009F908F900895CF93019ACFB7F8944CE0EC
:101ED00050E062E170E087EF91E00E9484106CE0D6
:101EE00070E087EF91E00E946C0C892B49F001981B
:101EF00087E890E09093A5008093A400CFBF18C01E
:101F000042E150E060E070E085EE91E00E948410D4
:101F100062E170E085EE91E00E946C0CCFBF892BEE
:101F200039F001988AE890E09093A5008093A4008E
:101F3000CF910895CF93CFB7F8946AE070E087EF20
:101F400091E00E946C0C909302028093010260E188
:101F500070E085EE91E00E946C0C9093F601809306
:101F6000F5014CE050E062E170E087EF91E00E9403
:101F7000941042E150E060E070E085EE91E00E9454
:101F80009410CFBFCF91089541E050E06FEF82E011
:101F90000E94340B10B80E94F8081092DF011092D2
:101FA000E0010E94E90D0E94DD0D83B78D6083BFC3
:101FB00082EB8093DD018EE48CBF89B7826089BF9C
:101FC0000E947C090E94CD070E948E0C78940E948A
:101FD000360D0E94610C0E94580C0E9450089FE030
:101FE00088E10FB6F894A89581BD0FBE91BD0E94FF
:101FF000C5070E94F90D0E9417090E9410080E944F
:102000009E0CA895F6CF991B79E004C0991F9617EE
:1020100008F0961B881F7A95C9F780950895AA1B2A
:10202000BB1B51E107C0AA1FBB1FA617B70710F0C3
:10203000A61BB70B881F991F5A95A9F780959095F5
:10204000BC01CD010895052E97FB1EF400940E945B
:102050003A1057FD07D00E94621007FC03D04EF4DF
:102060000C943A1050954095309521953F4F4F4F25
:102070005F4F089590958095709561957F4F8F4F34
:102080009F4F0895EE0FFF1F0590F491E02D0994E6
:10209000A29FB001B39FC001A39F700D811D1124A9
:1020A000911DB29F700D811D1124911D08950E94F4
:1020B0004810A59F900DB49F900DA49F800D911D79
:1020C00011240895A1E21A2EAA1BBB1BFD010DC00D
:1020D000AA1FBB1FEE1FFF1FA217B307E407F507D8
:1020E00020F0A21BB30BE40BF50B661F771F881FB4
:1020F000991F1A9469F760957095809590959B014A
:10210000AC01BD01CF010895DC01CB01FC01E199D7
:10211000FECF06C0FFBBEEBBE09A31960DB20D922A
:1021200041505040B8F70895DC01A40FB51F41504D
:10213000504048F0CB01840F951F2E910E94A510AE
:1021400041505040D0F70895262FE199FECF9FBB14
:102150008EBBE09A01970DB2021631F02DBB0FB67F
:0E216000F894E29AE19A0FBE0895F894FFCF2A
:10216E00010001000100065B4F01FE5701500143C3
:04217E00013C01001F
:00000001FF
